{
    "_format": "hh-sol-artifact-1",
    "contractName": "AtlantisFileManager",
    "sourceName": "contracts/Main.sol",
    "abi": [
        {
            "inputs": [],
            "name": "_tokenIdCounter",
            "outputs": [
                {
                    "internalType": "uint256",
                    "name": "_value",
                    "type": "uint256"
                }
            ],
            "stateMutability": "view",
            "type": "function"
        },
        {
            "inputs": [
                {
                    "internalType": "uint256",
                    "name": "_tokenId",
                    "type": "uint256"
                }
            ],
            "name": "getFileData",
            "outputs": [
                {
                    "internalType": "uint256",
                    "name": "_id",
                    "type": "uint256"
                },
                {
                    "internalType": "string",
                    "name": "_name",
                    "type": "string"
                },
                {
                    "internalType": "address",
                    "name": "_owner",
                    "type": "address"
                },
                {
                    "internalType": "string",
                    "name": "_url",
                    "type": "string"
                },
                {
                    "internalType": "string",
                    "name": "_description",
                    "type": "string"
                },
                {
                    "internalType": "string",
                    "name": "_access_level",
                    "type": "string"
                }
            ],
            "stateMutability": "view",
            "type": "function"
        },
        {
            "inputs": [
                {
                    "internalType": "uint256",
                    "name": "_tokenId",
                    "type": "uint256"
                },
                {
                    "internalType": "address",
                    "name": "_account",
                    "type": "address"
                }
            ],
            "name": "grantAccess",
            "outputs": [],
            "stateMutability": "nonpayable",
            "type": "function"
        },
        {
            "inputs": [
                {
                    "internalType": "uint256",
                    "name": "_tokenId",
                    "type": "uint256"
                }
            ],
            "name": "makeFilePrivate",
            "outputs": [],
            "stateMutability": "nonpayable",
            "type": "function"
        },
        {
            "inputs": [
                {
                    "internalType": "uint256",
                    "name": "_tokenId",
                    "type": "uint256"
                }
            ],
            "name": "makeFilePublic",
            "outputs": [],
            "stateMutability": "nonpayable",
            "type": "function"
        },
        {
            "inputs": [
                {
                    "internalType": "uint256",
                    "name": "_tokenId",
                    "type": "uint256"
                },
                {
                    "internalType": "address",
                    "name": "_account",
                    "type": "address"
                }
            ],
            "name": "revokeAccess",
            "outputs": [],
            "stateMutability": "nonpayable",
            "type": "function"
        },
        {
            "inputs": [
                {
                    "internalType": "string",
                    "name": "_name",
                    "type": "string"
                },
                {
                    "internalType": "string",
                    "name": "_url",
                    "type": "string"
                },
                {
                    "internalType": "string",
                    "name": "_description",
                    "type": "string"
                }
            ],
            "name": "uploadFile",
            "outputs": [
                {
                    "internalType": "uint256",
                    "name": "",
                    "type": "uint256"
                }
            ],
            "stateMutability": "nonpayable",
            "type": "function"
        }
    ],
    "bytecode": "0x608060405234801561001057600080fd5b50611d27806100206000396000f3fe608060405234801561001057600080fd5b506004361061007d5760003560e01c806392bb481a1161005b57806392bb481a146100d85780639a66b92314610108578063cc332d6514610124578063d9a5ec1b146101595761007d565b806365dd152c1461008257806382d0ed2e1461009e57806384c4bd4b146100ba575b600080fd5b61009c600480360381019061009791906116b5565b610175565b005b6100b860048036038101906100b39190611688565b610500565b005b6100c2610827565b6040516100cf919061189b565b60405180910390f35b6100f260048036038101906100ed91906115e1565b610833565b6040516100ff919061189b565b60405180910390f35b610122600480360381019061011d9190611688565b610a09565b005b61013e60048036038101906101399190611688565b610d31565b604051610150969594939291906118b6565b60405180910390f35b610173600480360381019061016e91906116b5565b61112a565b005b6000600160008481526020019081526020016000206040518060c0016040529081600082015481526020016001820180546101af90611a23565b80601f01602080910402602001604051908101604052809291908181526020018280546101db90611a23565b80156102285780601f106101fd57610100808354040283529160200191610228565b820191906000526020600020905b81548152906001019060200180831161020b57829003601f168201915b505050505081526020016002820160009054906101000a900473ffffffffffffffffffffffffffffffffffffffff1673ffffffffffffffffffffffffffffffffffffffff1673ffffffffffffffffffffffffffffffffffffffff16815260200160038201805461029790611a23565b80601f01602080910402602001604051908101604052809291908181526020018280546102c390611a23565b80156103105780601f106102e557610100808354040283529160200191610310565b820191906000526020600020905b8154815290600101906020018083116102f357829003601f168201915b5050505050815260200160048201805461032990611a23565b80601f016020809104026020016040519081016040528092919081815260200182805461035590611a23565b80156103a25780601f10610377576101008083540402835291602001916103a2565b820191906000526020600020905b81548152906001019060200180831161038557829003601f168201915b505050505081526020016005820160009054906101000a900460ff1660018111156103d0576103cf611a86565b5b60018111156103e2576103e1611a86565b5b815250509050600115156000808360000151815260200190815260200160002060003373ffffffffffffffffffffffffffffffffffffffff1673ffffffffffffffffffffffffffffffffffffffff16815260200190815260200160002060009054906101000a900460ff1615151461048f576040517f08c379a0000000000000000000000000000000000000000000000000000000008152600401610486906117fb565b60405180910390fd5b60016000808360000151815260200190815260200160002060008473ffffffffffffffffffffffffffffffffffffffff1673ffffffffffffffffffffffffffffffffffffffff16815260200190815260200160002060006101000a81548160ff021916908315150217905550505050565b6000600160008381526020019081526020016000206040518060c00160405290816000820154815260200160018201805461053a90611a23565b80601f016020809104026020016040519081016040528092919081815260200182805461056690611a23565b80156105b35780601f10610588576101008083540402835291602001916105b3565b820191906000526020600020905b81548152906001019060200180831161059657829003601f168201915b505050505081526020016002820160009054906101000a900473ffffffffffffffffffffffffffffffffffffffff1673ffffffffffffffffffffffffffffffffffffffff1673ffffffffffffffffffffffffffffffffffffffff16815260200160038201805461062290611a23565b80601f016020809104026020016040519081016040528092919081815260200182805461064e90611a23565b801561069b5780601f106106705761010080835404028352916020019161069b565b820191906000526020600020905b81548152906001019060200180831161067e57829003601f168201915b505050505081526020016004820180546106b490611a23565b80601f01602080910402602001604051908101604052809291908181526020018280546106e090611a23565b801561072d5780601f106107025761010080835404028352916020019161072d565b820191906000526020600020905b81548152906001019060200180831161071057829003601f168201915b505050505081526020016005820160009054906101000a900460ff16600181111561075b5761075a611a86565b5b600181111561076d5761076c611a86565b5b8152505090503373ffffffffffffffffffffffffffffffffffffffff16816040015173ffffffffffffffffffffffffffffffffffffffff16146107e5576040517f08c379a00000000000000000000000000000000000000000000000000000000081526004016107dc9061185b565b60405180910390fd5b600180600084815260200190815260200160002060050160006101000a81548160ff0219169083600181111561081e5761081d611a86565b5b02179055505050565b60028060000154905081565b6000806108406002611480565b905061084c600261148e565b60006040518060c001604052808381526020018781526020013373ffffffffffffffffffffffffffffffffffffffff168152602001868152602001858152602001600060018111156108a1576108a0611a86565b5b815250905080600160008481526020019081526020016000206000820151816000015560208201518160010190805190602001906108e09291906114a4565b5060408201518160020160006101000a81548173ffffffffffffffffffffffffffffffffffffffff021916908373ffffffffffffffffffffffffffffffffffffffff16021790555060608201518160030190805190602001906109449291906114a4565b5060808201518160040190805190602001906109619291906114a4565b5060a08201518160050160006101000a81548160ff0219169083600181111561098d5761098c611a86565b5b0217905550905050600160008084815260200190815260200160002060003373ffffffffffffffffffffffffffffffffffffffff1673ffffffffffffffffffffffffffffffffffffffff16815260200190815260200160002060006101000a81548160ff02191690831515021790555081925050509392505050565b6000600160008381526020019081526020016000206040518060c001604052908160008201548152602001600182018054610a4390611a23565b80601f0160208091040260200160405190810160405280929190818152602001828054610a6f90611a23565b8015610abc5780601f10610a9157610100808354040283529160200191610abc565b820191906000526020600020905b815481529060010190602001808311610a9f57829003601f168201915b505050505081526020016002820160009054906101000a900473ffffffffffffffffffffffffffffffffffffffff1673ffffffffffffffffffffffffffffffffffffffff1673ffffffffffffffffffffffffffffffffffffffff168152602001600382018054610b2b90611a23565b80601f0160208091040260200160405190810160405280929190818152602001828054610b5790611a23565b8015610ba45780601f10610b7957610100808354040283529160200191610ba4565b820191906000526020600020905b815481529060010190602001808311610b8757829003601f168201915b50505050508152602001600482018054610bbd90611a23565b80601f0160208091040260200160405190810160405280929190818152602001828054610be990611a23565b8015610c365780601f10610c0b57610100808354040283529160200191610c36565b820191906000526020600020905b815481529060010190602001808311610c1957829003601f168201915b505050505081526020016005820160009054906101000a900460ff166001811115610c6457610c63611a86565b5b6001811115610c7657610c75611a86565b5b8152505090503373ffffffffffffffffffffffffffffffffffffffff16816040015173ffffffffffffffffffffffffffffffffffffffff1614610cee576040517f08c379a0000000000000000000000000000000000000000000000000000000008152600401610ce59061187b565b60405180910390fd5b60006001600084815260200190815260200160002060050160006101000a81548160ff02191690836001811115610d2857610d27611a86565b5b02179055505050565b60006060600060608060606000600160008981526020019081526020016000206040518060c001604052908160008201548152602001600182018054610d7690611a23565b80601f0160208091040260200160405190810160405280929190818152602001828054610da290611a23565b8015610def5780601f10610dc457610100808354040283529160200191610def565b820191906000526020600020905b815481529060010190602001808311610dd257829003601f168201915b505050505081526020016002820160009054906101000a900473ffffffffffffffffffffffffffffffffffffffff1673ffffffffffffffffffffffffffffffffffffffff1673ffffffffffffffffffffffffffffffffffffffff168152602001600382018054610e5e90611a23565b80601f0160208091040260200160405190810160405280929190818152602001828054610e8a90611a23565b8015610ed75780601f10610eac57610100808354040283529160200191610ed7565b820191906000526020600020905b815481529060010190602001808311610eba57829003601f168201915b50505050508152602001600482018054610ef090611a23565b80601f0160208091040260200160405190810160405280929190818152602001828054610f1c90611a23565b8015610f695780601f10610f3e57610100808354040283529160200191610f69565b820191906000526020600020905b815481529060010190602001808311610f4c57829003601f168201915b505050505081526020016005820160009054906101000a900460ff166001811115610f9757610f96611a86565b5b6001811115610fa957610fa8611a86565b5b81525050905060006040518060400160405280600681526020017f7075626c696300000000000000000000000000000000000000000000000000008152509050600180811115610ffc57610ffb611a86565b5b8260a00151600181111561101357611012611a86565b5b14156110f957600115156000808460000151815260200190815260200160002060003373ffffffffffffffffffffffffffffffffffffffff1673ffffffffffffffffffffffffffffffffffffffff16815260200190815260200160002060009054906101000a900460ff161515146110c0576040517f08c379a00000000000000000000000000000000000000000000000000000000081526004016110b79061183b565b60405180910390fd5b6040518060400160405280600781526020017f707269766174650000000000000000000000000000000000000000000000000081525090505b8160000151826020015183604001518460600151856080015185975097509750975097509750505091939550919395565b6000600160008481526020019081526020016000206040518060c00160405290816000820154815260200160018201805461116490611a23565b80601f016020809104026020016040519081016040528092919081815260200182805461119090611a23565b80156111dd5780601f106111b2576101008083540402835291602001916111dd565b820191906000526020600020905b8154815290600101906020018083116111c057829003601f168201915b505050505081526020016002820160009054906101000a900473ffffffffffffffffffffffffffffffffffffffff1673ffffffffffffffffffffffffffffffffffffffff1673ffffffffffffffffffffffffffffffffffffffff16815260200160038201805461124c90611a23565b80601f016020809104026020016040519081016040528092919081815260200182805461127890611a23565b80156112c55780601f1061129a576101008083540402835291602001916112c5565b820191906000526020600020905b8154815290600101906020018083116112a857829003601f168201915b505050505081526020016004820180546112de90611a23565b80601f016020809104026020016040519081016040528092919081815260200182805461130a90611a23565b80156113575780601f1061132c57610100808354040283529160200191611357565b820191906000526020600020905b81548152906001019060200180831161133a57829003601f168201915b505050505081526020016005820160009054906101000a900460ff16600181111561138557611384611a86565b5b600181111561139757611396611a86565b5b8152505090503373ffffffffffffffffffffffffffffffffffffffff16816040015173ffffffffffffffffffffffffffffffffffffffff161461140f576040517f08c379a00000000000000000000000000000000000000000000000000000000081526004016114069061181b565b60405180910390fd5b60008060008360000151815260200190815260200160002060008473ffffffffffffffffffffffffffffffffffffffff1673ffffffffffffffffffffffffffffffffffffffff16815260200190815260200160002060006101000a81548160ff021916908315150217905550505050565b600081600001549050919050565b6001816000016000828254019250508190555050565b8280546114b090611a23565b90600052602060002090601f0160209004810192826114d25760008555611519565b82601f106114eb57805160ff1916838001178555611519565b82800160010185558215611519579182015b828111156115185782518255916020019190600101906114fd565b5b509050611526919061152a565b5090565b5b8082111561154357600081600090555060010161152b565b5090565b600061155a61155584611958565b611933565b90508281526020810184848401111561157657611575611b18565b5b6115818482856119e1565b509392505050565b60008135905061159881611cc3565b92915050565b600082601f8301126115b3576115b2611b13565b5b81356115c3848260208601611547565b91505092915050565b6000813590506115db81611cda565b92915050565b6000806000606084860312156115fa576115f9611b22565b5b600084013567ffffffffffffffff81111561161857611617611b1d565b5b6116248682870161159e565b935050602084013567ffffffffffffffff81111561164557611644611b1d565b5b6116518682870161159e565b925050604084013567ffffffffffffffff81111561167257611671611b1d565b5b61167e8682870161159e565b9150509250925092565b60006020828403121561169e5761169d611b22565b5b60006116ac848285016115cc565b91505092915050565b600080604083850312156116cc576116cb611b22565b5b60006116da858286016115cc565b92505060206116eb85828601611589565b9150509250929050565b6116fe816119a5565b82525050565b600061170f82611989565b6117198185611994565b93506117298185602086016119f0565b61173281611b27565b840191505092915050565b600061174a603083611994565b915061175582611b38565b604082019050919050565b600061176d602683611994565b915061177882611b87565b604082019050919050565b6000611790603083611994565b915061179b82611bd6565b604082019050919050565b60006117b3602c83611994565b91506117be82611c25565b604082019050919050565b60006117d6602b83611994565b91506117e182611c74565b604082019050919050565b6117f5816119d7565b82525050565b600060208201905081810360008301526118148161173d565b9050919050565b6000602082019050818103600083015261183481611760565b9050919050565b6000602082019050818103600083015261185481611783565b9050919050565b60006020820190508181036000830152611874816117a6565b9050919050565b60006020820190508181036000830152611894816117c9565b9050919050565b60006020820190506118b060008301846117ec565b92915050565b600060c0820190506118cb60008301896117ec565b81810360208301526118dd8188611704565b90506118ec60408301876116f5565b81810360608301526118fe8186611704565b905081810360808301526119128185611704565b905081810360a08301526119268184611704565b9050979650505050505050565b600061193d61194e565b90506119498282611a55565b919050565b6000604051905090565b600067ffffffffffffffff82111561197357611972611ae4565b5b61197c82611b27565b9050602081019050919050565b600081519050919050565b600082825260208201905092915050565b60006119b0826119b7565b9050919050565b600073ffffffffffffffffffffffffffffffffffffffff82169050919050565b6000819050919050565b82818337600083830152505050565b60005b83811015611a0e5780820151818401526020810190506119f3565b83811115611a1d576000848401525b50505050565b60006002820490506001821680611a3b57607f821691505b60208210811415611a4f57611a4e611ab5565b5b50919050565b611a5e82611b27565b810181811067ffffffffffffffff82111715611a7d57611a7c611ae4565b5b80604052505050565b7f4e487b7100000000000000000000000000000000000000000000000000000000600052602160045260246000fd5b7f4e487b7100000000000000000000000000000000000000000000000000000000600052602260045260246000fd5b7f4e487b7100000000000000000000000000000000000000000000000000000000600052604160045260246000fd5b600080fd5b600080fd5b600080fd5b600080fd5b6000601f19601f8301169050919050565b7f796f75206d75737420686176652061636365737320746f207468652066696c6560008201527f20746f206772616e742061636365737300000000000000000000000000000000602082015250565b7f796f75206d75737420626520746865206f776e657220746f207265766f6b652060008201527f6163636573730000000000000000000000000000000000000000000000000000602082015250565b7f796f75206d75737420686176652061636365737320746f207468652066696c6560008201527f20746f20676574207468652066696c6500000000000000000000000000000000602082015250565b7f796f75206d75737420626520746865206f776e657220746f206d616b6520612060008201527f66696c6520707269766174650000000000000000000000000000000000000000602082015250565b7f796f75206d75737420626520746865206f776e657220746f206d616b6520612060008201527f66696c65207075626c6963000000000000000000000000000000000000000000602082015250565b611ccc816119a5565b8114611cd757600080fd5b50565b611ce3816119d7565b8114611cee57600080fd5b5056fea264697066735822122095281161e68d30a655cc74a2677a5ceb3e600655f9ed758d5fef3c9f7e84bb5364736f6c63430008070033",
    "linkReferences": {},
    "deployedLinkReferences": {}
}